{
  "_format": "hh-sol-artifact-1",
  "contractName": "NftMarketplace",
  "sourceName": "contracts/NftMarketplace.sol",
  "abi": [
    {
      "inputs": [
        {
          "internalType": "address",
          "name": "nftAddress",
          "type": "address"
        },
        {
          "internalType": "uint256",
          "name": "tokenId",
          "type": "uint256"
        }
      ],
      "name": "AlreadyListed",
      "type": "error"
    },
    {
      "inputs": [
        {
          "internalType": "address",
          "name": "nftAddress",
          "type": "address"
        },
        {
          "internalType": "uint256",
          "name": "tokenId",
          "type": "uint256"
        }
      ],
      "name": "NotListed",
      "type": "error"
    },
    {
      "inputs": [],
      "name": "NotOwner",
      "type": "error"
    },
    {
      "anonymous": false,
      "inputs": [
        {
          "indexed": true,
          "internalType": "address",
          "name": "buyer",
          "type": "address"
        },
        {
          "indexed": true,
          "internalType": "address",
          "name": "nftAddress",
          "type": "address"
        },
        {
          "indexed": true,
          "internalType": "uint256",
          "name": "tokenId",
          "type": "uint256"
        },
        {
          "indexed": false,
          "internalType": "uint256",
          "name": "price",
          "type": "uint256"
        }
      ],
      "name": "ItemBought",
      "type": "event"
    },
    {
      "anonymous": false,
      "inputs": [
        {
          "indexed": true,
          "internalType": "address",
          "name": "seller",
          "type": "address"
        },
        {
          "indexed": true,
          "internalType": "address",
          "name": "nftAddress",
          "type": "address"
        },
        {
          "indexed": true,
          "internalType": "uint256",
          "name": "tokenId",
          "type": "uint256"
        }
      ],
      "name": "ItemCanceled",
      "type": "event"
    },
    {
      "anonymous": false,
      "inputs": [
        {
          "indexed": true,
          "internalType": "address",
          "name": "seller",
          "type": "address"
        },
        {
          "indexed": true,
          "internalType": "address",
          "name": "nftAddress",
          "type": "address"
        },
        {
          "indexed": true,
          "internalType": "uint256",
          "name": "tokenId",
          "type": "uint256"
        },
        {
          "indexed": false,
          "internalType": "uint256",
          "name": "price",
          "type": "uint256"
        }
      ],
      "name": "ItemListed",
      "type": "event"
    },
    {
      "anonymous": false,
      "inputs": [
        {
          "indexed": false,
          "internalType": "address",
          "name": "owner",
          "type": "address"
        },
        {
          "indexed": false,
          "internalType": "address",
          "name": "user",
          "type": "address"
        },
        {
          "indexed": false,
          "internalType": "address",
          "name": "nftContract",
          "type": "address"
        },
        {
          "indexed": false,
          "internalType": "uint256",
          "name": "tokenId",
          "type": "uint256"
        },
        {
          "indexed": false,
          "internalType": "uint256",
          "name": "amountPerMinute",
          "type": "uint256"
        },
        {
          "indexed": false,
          "internalType": "uint256",
          "name": "expires",
          "type": "uint256"
        }
      ],
      "name": "NFTListed",
      "type": "event"
    },
    {
      "anonymous": false,
      "inputs": [
        {
          "indexed": false,
          "internalType": "address",
          "name": "owner",
          "type": "address"
        },
        {
          "indexed": false,
          "internalType": "address",
          "name": "user",
          "type": "address"
        },
        {
          "indexed": false,
          "internalType": "address",
          "name": "nftContract",
          "type": "address"
        },
        {
          "indexed": false,
          "internalType": "uint256",
          "name": "tokenId",
          "type": "uint256"
        },
        {
          "indexed": false,
          "internalType": "uint64",
          "name": "expires",
          "type": "uint64"
        },
        {
          "indexed": false,
          "internalType": "uint256",
          "name": "DueAmount",
          "type": "uint256"
        }
      ],
      "name": "NFTRented",
      "type": "event"
    },
    {
      "anonymous": false,
      "inputs": [
        {
          "indexed": false,
          "internalType": "address",
          "name": "unlistSender",
          "type": "address"
        },
        {
          "indexed": false,
          "internalType": "address",
          "name": "nftContract",
          "type": "address"
        },
        {
          "indexed": false,
          "internalType": "uint256",
          "name": "tokenId",
          "type": "uint256"
        }
      ],
      "name": "NFTUnlisted",
      "type": "event"
    },
    {
      "inputs": [
        {
          "internalType": "address",
          "name": "nftAddress",
          "type": "address"
        },
        {
          "internalType": "uint256",
          "name": "tokenId",
          "type": "uint256"
        }
      ],
      "name": "cancelListing",
      "outputs": [],
      "stateMutability": "nonpayable",
      "type": "function"
    },
    {
      "inputs": [],
      "name": "itemCount",
      "outputs": [
        {
          "internalType": "uint256",
          "name": "",
          "type": "uint256"
        }
      ],
      "stateMutability": "view",
      "type": "function"
    },
    {
      "inputs": [
        {
          "internalType": "uint256",
          "name": "",
          "type": "uint256"
        }
      ],
      "name": "items",
      "outputs": [
        {
          "internalType": "uint256",
          "name": "itemId",
          "type": "uint256"
        },
        {
          "internalType": "address",
          "name": "nft",
          "type": "address"
        },
        {
          "internalType": "uint256",
          "name": "tokenId",
          "type": "uint256"
        },
        {
          "internalType": "uint256",
          "name": "price",
          "type": "uint256"
        },
        {
          "internalType": "address payable",
          "name": "seller",
          "type": "address"
        },
        {
          "internalType": "bool",
          "name": "sold",
          "type": "bool"
        }
      ],
      "stateMutability": "view",
      "type": "function"
    },
    {
      "inputs": [
        {
          "internalType": "address",
          "name": "nftAddress",
          "type": "address"
        },
        {
          "internalType": "uint256",
          "name": "tokenId",
          "type": "uint256"
        },
        {
          "internalType": "uint256",
          "name": "price",
          "type": "uint256"
        }
      ],
      "name": "listItem",
      "outputs": [],
      "stateMutability": "nonpayable",
      "type": "function"
    },
    {
      "inputs": [
        {
          "internalType": "uint256",
          "name": "_itemId",
          "type": "uint256"
        }
      ],
      "name": "purchaseItem",
      "outputs": [],
      "stateMutability": "payable",
      "type": "function"
    }
  ],
  "bytecode": "0x608060405234801561001057600080fd5b5060016000819055506115ba806100286000396000f3fe60806040526004361061004a5760003560e01c80636bfb0d011461004f57806389bfd38f1461007a578063b2ddee06146100a3578063bfb231d2146100cc578063d38ea5bf1461010e575b600080fd5b34801561005b57600080fd5b5061006461012a565b6040516100719190610fbb565b60405180910390f35b34801561008657600080fd5b506100a1600480360381019061009c9190611065565b610130565b005b3480156100af57600080fd5b506100ca60048036038101906100c591906110b8565b61085a565b005b3480156100d857600080fd5b506100f360048036038101906100ee91906110f8565b610bbd565b60405161010596959493929190611170565b60405180910390f35b610128600480360381019061012391906110f8565b610c46565b005b60035481565b8282336000600460008573ffffffffffffffffffffffffffffffffffffffff1673ffffffffffffffffffffffffffffffffffffffff1681526020019081526020016000206000848152602001908152602001600020604051806060016040529081600082015481526020016001820160009054906101000a900473ffffffffffffffffffffffffffffffffffffffff1673ffffffffffffffffffffffffffffffffffffffff1673ffffffffffffffffffffffffffffffffffffffff1681526020016001820160149054906101000a900460ff16151515158152505090506000816000015111156102595783836040517f4a5568d50000000000000000000000000000000000000000000000000000000081526004016102509291906111d1565b60405180910390fd5b6003600081548092919061026c90611229565b9190505550600085116102b4576040517f08c379a00000000000000000000000000000000000000000000000000000000081526004016102ab906112cf565b60405180910390fd5b60008790503073ffffffffffffffffffffffffffffffffffffffff168173ffffffffffffffffffffffffffffffffffffffff1663081812fc896040518263ffffffff1660e01b81526004016103099190610fbb565b60206040518083038186803b15801561032157600080fd5b505afa158015610335573d6000803e3d6000fd5b505050506040513d601f19601f820116820180604052508101906103599190611304565b73ffffffffffffffffffffffffffffffffffffffff1614156103b0576040517f08c379a00000000000000000000000000000000000000000000000000000000081526004016103a79061137d565b60405180910390fd5b8773ffffffffffffffffffffffffffffffffffffffff166323b872dd33308a6040518463ffffffff1660e01b81526004016103ed9392919061139d565b600060405180830381600087803b15801561040757600080fd5b505af115801561041b573d6000803e3d6000fd5b5050505060405180606001604052808781526020013373ffffffffffffffffffffffffffffffffffffffff16815260200160011515815250600460008a73ffffffffffffffffffffffffffffffffffffffff1673ffffffffffffffffffffffffffffffffffffffff16815260200190815260200160002060008981526020019081526020016000206000820151816000015560208201518160010160006101000a81548173ffffffffffffffffffffffffffffffffffffffff021916908373ffffffffffffffffffffffffffffffffffffffff16021790555060408201518160010160146101000a81548160ff021916908315150217905550905050868873ffffffffffffffffffffffffffffffffffffffff163373ffffffffffffffffffffffffffffffffffffffff167fd547e933094f12a9159076970143ebe73234e64480317844b0dcb36117116de4896040516105759190610fbb565b60405180910390a46040518060c001604052808973ffffffffffffffffffffffffffffffffffffffff1681526020018881526020013373ffffffffffffffffffffffffffffffffffffffff1681526020013073ffffffffffffffffffffffffffffffffffffffff168152602001878152602001600115158152506006600089815260200190815260200160002060008201518160000160006101000a81548173ffffffffffffffffffffffffffffffffffffffff021916908373ffffffffffffffffffffffffffffffffffffffff1602179055506020820151816001015560408201518160020160006101000a81548173ffffffffffffffffffffffffffffffffffffffff021916908373ffffffffffffffffffffffffffffffffffffffff16021790555060608201518160030160006101000a81548173ffffffffffffffffffffffffffffffffffffffff021916908373ffffffffffffffffffffffffffffffffffffffff1602179055506080820151816004015560a08201518160050160006101000a81548160ff0219169083151502179055509050506040518060c0016040528060035481526020018973ffffffffffffffffffffffffffffffffffffffff1681526020018881526020018781526020013373ffffffffffffffffffffffffffffffffffffffff168152602001600015158152506007600060035481526020019081526020016000206000820151816000015560208201518160010160006101000a81548173ffffffffffffffffffffffffffffffffffffffff021916908373ffffffffffffffffffffffffffffffffffffffff160217905550604082015181600201556060820151816003015560808201518160040160006101000a81548173ffffffffffffffffffffffffffffffffffffffff021916908373ffffffffffffffffffffffffffffffffffffffff16021790555060a08201518160040160146101000a81548160ff0219169083151502179055509050505050505050505050565b818133600083905060008173ffffffffffffffffffffffffffffffffffffffff16636352211e856040518263ffffffff1660e01b815260040161089d9190610fbb565b60206040518083038186803b1580156108b557600080fd5b505afa1580156108c9573d6000803e3d6000fd5b505050506040513d601f19601f820116820180604052508101906108ed9190611304565b90508073ffffffffffffffffffffffffffffffffffffffff168373ffffffffffffffffffffffffffffffffffffffff1614610954576040517f30cd747100000000000000000000000000000000000000000000000000000000815260040160405180910390fd5b86866000600460008473ffffffffffffffffffffffffffffffffffffffff1673ffffffffffffffffffffffffffffffffffffffff1681526020019081526020016000206000838152602001908152602001600020604051806060016040529081600082015481526020016001820160009054906101000a900473ffffffffffffffffffffffffffffffffffffffff1673ffffffffffffffffffffffffffffffffffffffff1673ffffffffffffffffffffffffffffffffffffffff1681526020016001820160149054906101000a900460ff16151515158152505090506000816000015111610a7b5782826040517f6831488c000000000000000000000000000000000000000000000000000000008152600401610a729291906111d1565b60405180910390fd5b6000600460008c73ffffffffffffffffffffffffffffffffffffffff1673ffffffffffffffffffffffffffffffffffffffff16815260200190815260200160002060008b815260200190815260200160002060010160146101000a81548160ff0219169083151502179055508973ffffffffffffffffffffffffffffffffffffffff166323b872dd30338c6040518463ffffffff1660e01b8152600401610b249392919061139d565b600060405180830381600087803b158015610b3e57600080fd5b505af1158015610b52573d6000803e3d6000fd5b50505050888a73ffffffffffffffffffffffffffffffffffffffff163373ffffffffffffffffffffffffffffffffffffffff167f9ba1a3cb55ce8d63d072a886f94d2a744f50cddf82128e897d0661f5ec62315860405160405180910390a450505050505050505050565b60076020528060005260406000206000915090508060000154908060010160009054906101000a900473ffffffffffffffffffffffffffffffffffffffff16908060020154908060030154908060040160009054906101000a900473ffffffffffffffffffffffffffffffffffffffff16908060040160149054906101000a900460ff16905086565b60026000541415610c8c576040517f08c379a0000000000000000000000000000000000000000000000000000000008152600401610c8390611420565b60405180910390fd5b60026000819055506000600760008381526020019081526020016000209050600082118015610cbd57506003548211155b610cfc576040517f08c379a0000000000000000000000000000000000000000000000000000000008152600401610cf39061148c565b60405180910390fd5b8060040160149054906101000a900460ff1615610d4e576040517f08c379a0000000000000000000000000000000000000000000000000000000008152600401610d45906114f8565b60405180910390fd5b8060040160009054906101000a900473ffffffffffffffffffffffffffffffffffffffff1673ffffffffffffffffffffffffffffffffffffffff163373ffffffffffffffffffffffffffffffffffffffff161415610de1576040517f08c379a0000000000000000000000000000000000000000000000000000000008152600401610dd890611564565b60405180910390fd5b8060040160009054906101000a900473ffffffffffffffffffffffffffffffffffffffff1673ffffffffffffffffffffffffffffffffffffffff166108fc82600301549081150290604051600060405180830381858888f19350505050158015610e4f573d6000803e3d6000fd5b5060018160040160146101000a81548160ff0219169083151502179055508060010160009054906101000a900473ffffffffffffffffffffffffffffffffffffffff1673ffffffffffffffffffffffffffffffffffffffff166323b872dd303384600201546040518463ffffffff1660e01b8152600401610ed29392919061139d565b600060405180830381600087803b158015610eec57600080fd5b505af1158015610f00573d6000803e3d6000fd5b5050505080600201548160010160009054906101000a900473ffffffffffffffffffffffffffffffffffffffff1673ffffffffffffffffffffffffffffffffffffffff163373ffffffffffffffffffffffffffffffffffffffff167f263223b1dd81e51054a4e6f791d45a4a1ddb4aadcd93a2dfd892615c3fdac1878460030154604051610f8e9190610fbb565b60405180910390a450600160008190555050565b6000819050919050565b610fb581610fa2565b82525050565b6000602082019050610fd06000830184610fac565b92915050565b600080fd5b600073ffffffffffffffffffffffffffffffffffffffff82169050919050565b600061100682610fdb565b9050919050565b61101681610ffb565b811461102157600080fd5b50565b6000813590506110338161100d565b92915050565b61104281610fa2565b811461104d57600080fd5b50565b60008135905061105f81611039565b92915050565b60008060006060848603121561107e5761107d610fd6565b5b600061108c86828701611024565b935050602061109d86828701611050565b92505060406110ae86828701611050565b9150509250925092565b600080604083850312156110cf576110ce610fd6565b5b60006110dd85828601611024565b92505060206110ee85828601611050565b9150509250929050565b60006020828403121561110e5761110d610fd6565b5b600061111c84828501611050565b91505092915050565b61112e81610ffb565b82525050565b600061113f82610fdb565b9050919050565b61114f81611134565b82525050565b60008115159050919050565b61116a81611155565b82525050565b600060c0820190506111856000830189610fac565b6111926020830188611125565b61119f6040830187610fac565b6111ac6060830186610fac565b6111b96080830185611146565b6111c660a0830184611161565b979650505050505050565b60006040820190506111e66000830185611125565b6111f36020830184610fac565b9392505050565b7f4e487b7100000000000000000000000000000000000000000000000000000000600052601160045260246000fd5b600061123482610fa2565b91507fffffffffffffffffffffffffffffffffffffffffffffffffffffffffffffffff821415611267576112666111fa565b5b600182019050919050565b600082825260208201905092915050565b7f5072696365204d7573742042652041626f7665205a65726f0000000000000000600082015250565b60006112b9601883611272565b91506112c482611283565b602082019050919050565b600060208201905081810360008301526112e8816112ac565b9050919050565b6000815190506112fe8161100d565b92915050565b60006020828403121561131a57611319610fd6565b5b6000611328848285016112ef565b91505092915050565b7f4e6f7420417070726f76656420466f72204d61726b657420506c616365000000600082015250565b6000611367601d83611272565b915061137282611331565b602082019050919050565b600060208201905081810360008301526113968161135a565b9050919050565b60006060820190506113b26000830186611125565b6113bf6020830185611125565b6113cc6040830184610fac565b949350505050565b7f5265656e7472616e637947756172643a207265656e7472616e742063616c6c00600082015250565b600061140a601f83611272565b9150611415826113d4565b602082019050919050565b60006020820190508181036000830152611439816113fd565b9050919050565b7f6974656d20646f65736e27742065786973740000000000000000000000000000600082015250565b6000611476601283611272565b915061148182611440565b602082019050919050565b600060208201905081810360008301526114a581611469565b9050919050565b7f6974656d20616c726561647920736f6c64000000000000000000000000000000600082015250565b60006114e2601183611272565b91506114ed826114ac565b602082019050919050565b60006020820190508181036000830152611511816114d5565b9050919050565b7f4f776e6572206f66204e46542043616e7420427579205468656972204e667400600082015250565b600061154e601f83611272565b915061155982611518565b602082019050919050565b6000602082019050818103600083015261157d81611541565b905091905056fea2646970667358221220e2c42188d35a49b0f8627429be9bc75072e5e46de68bfac95e408ceb4e3c9bfa64736f6c63430008090033",
  "linkReferences": {},
  "deployedLinkReferences": {}
}