{
  "_format": "hh-sol-artifact-1",
  "contractName": "Presale",
  "sourceName": "contracts/PreSale.sol",
  "abi": [
    {
      "inputs": [
        {
          "internalType": "contract IMyToken",
          "name": "_nft",
          "type": "address"
        }
      ],
      "stateMutability": "nonpayable",
      "type": "constructor"
    },
    {
      "anonymous": false,
      "inputs": [
        {
          "indexed": true,
          "internalType": "address",
          "name": "previousOwner",
          "type": "address"
        },
        {
          "indexed": true,
          "internalType": "address",
          "name": "newOwner",
          "type": "address"
        }
      ],
      "name": "OwnershipTransferred",
      "type": "event"
    },
    {
      "inputs": [],
      "name": "checkBalance",
      "outputs": [
        {
          "internalType": "uint256",
          "name": "",
          "type": "uint256"
        }
      ],
      "stateMutability": "view",
      "type": "function"
    },
    {
      "inputs": [],
      "name": "mintToken",
      "outputs": [],
      "stateMutability": "payable",
      "type": "function"
    },
    {
      "inputs": [],
      "name": "nft",
      "outputs": [
        {
          "internalType": "contract IMyToken",
          "name": "",
          "type": "address"
        }
      ],
      "stateMutability": "view",
      "type": "function"
    },
    {
      "inputs": [
        {
          "internalType": "address",
          "name": "",
          "type": "address"
        }
      ],
      "name": "nftminted",
      "outputs": [
        {
          "internalType": "uint256",
          "name": "",
          "type": "uint256"
        }
      ],
      "stateMutability": "view",
      "type": "function"
    },
    {
      "inputs": [],
      "name": "owner",
      "outputs": [
        {
          "internalType": "address",
          "name": "",
          "type": "address"
        }
      ],
      "stateMutability": "view",
      "type": "function"
    },
    {
      "inputs": [],
      "name": "renounceOwnership",
      "outputs": [],
      "stateMutability": "nonpayable",
      "type": "function"
    },
    {
      "inputs": [
        {
          "internalType": "uint256",
          "name": "_endtime",
          "type": "uint256"
        },
        {
          "internalType": "uint256",
          "name": "_maxNftPerAddress",
          "type": "uint256"
        },
        {
          "internalType": "uint256",
          "name": "_maxPreSaleNft",
          "type": "uint256"
        },
        {
          "internalType": "uint256",
          "name": "_supply",
          "type": "uint256"
        },
        {
          "internalType": "uint256",
          "name": "_listingFees",
          "type": "uint256"
        }
      ],
      "name": "setParam",
      "outputs": [],
      "stateMutability": "nonpayable",
      "type": "function"
    },
    {
      "inputs": [],
      "name": "totalfees",
      "outputs": [
        {
          "internalType": "uint256",
          "name": "",
          "type": "uint256"
        }
      ],
      "stateMutability": "view",
      "type": "function"
    },
    {
      "inputs": [
        {
          "internalType": "address",
          "name": "newOwner",
          "type": "address"
        }
      ],
      "name": "transferOwnership",
      "outputs": [],
      "stateMutability": "nonpayable",
      "type": "function"
    }
  ],
  "bytecode": "0x60806040523480156200001157600080fd5b50604051620011c0380380620011c08339818101604052810190620000379190620001f0565b620000576200004b620000a660201b60201c565b620000ae60201b60201c565b6001808190555080600260006101000a81548173ffffffffffffffffffffffffffffffffffffffff021916908373ffffffffffffffffffffffffffffffffffffffff1602179055505062000222565b600033905090565b60008060009054906101000a900473ffffffffffffffffffffffffffffffffffffffff169050816000806101000a81548173ffffffffffffffffffffffffffffffffffffffff021916908373ffffffffffffffffffffffffffffffffffffffff1602179055508173ffffffffffffffffffffffffffffffffffffffff168173ffffffffffffffffffffffffffffffffffffffff167f8be0079c531659141344cd1fd0a4f28419497f9722a3daafe3b4186f6b6457e060405160405180910390a35050565b600080fd5b600073ffffffffffffffffffffffffffffffffffffffff82169050919050565b6000620001a48262000177565b9050919050565b6000620001b88262000197565b9050919050565b620001ca81620001ab565b8114620001d657600080fd5b50565b600081519050620001ea81620001bf565b92915050565b60006020828403121562000209576200020862000172565b5b60006200021984828501620001d9565b91505092915050565b610f8e80620002326000396000f3fe6080604052600436106100865760003560e01c8063715018a611610059578063715018a6146101285780638da5cb5b1461013f578063c71daccb1461016a578063e5347d0f14610195578063f2fde38b146101be57610086565b80631cb609501461008b5780632004ffd9146100c8578063346b253d146100d257806347ccca02146100fd575b600080fd5b34801561009757600080fd5b506100b260048036038101906100ad91906108c7565b6101e7565b6040516100bf919061090d565b60405180910390f35b6100d06101ff565b005b3480156100de57600080fd5b506100e761058c565b6040516100f4919061090d565b60405180910390f35b34801561010957600080fd5b50610112610592565b60405161011f9190610987565b60405180910390f35b34801561013457600080fd5b5061013d6105b8565b005b34801561014b57600080fd5b506101546105cc565b60405161016191906109b1565b60405180910390f35b34801561017657600080fd5b5061017f6105f5565b60405161018c919061090d565b60405180910390f35b3480156101a157600080fd5b506101bc60048036038101906101b791906109f8565b610602565b005b3480156101ca57600080fd5b506101e560048036038101906101e091906108c7565b610696565b005b600d6020528060005260406000206000915090505481565b60026001541415610245576040517f08c379a000000000000000000000000000000000000000000000000000000000815260040161023c90610ad0565b60405180910390fd5b6002600181905550600a600101600081548092919061026390610b1f565b9190505550600a600201600081548092919061027e90610b1f565b91905055504260036001015410156102cb576040517f08c379a00000000000000000000000000000000000000000000000000000000081526004016102c290610bb4565b60405180910390fd5b6003800154600a600101541115610317576040517f08c379a000000000000000000000000000000000000000000000000000000000815260040161030e90610c46565b60405180910390fd5b600a600201546003600401541015610364576040517f08c379a000000000000000000000000000000000000000000000000000000000815260040161035b90610cb2565b60405180910390fd5b600d60003373ffffffffffffffffffffffffffffffffffffffff1673ffffffffffffffffffffffffffffffffffffffff16815260200190815260200160002060008154809291906103b490610b1f565b9190505550600d60003373ffffffffffffffffffffffffffffffffffffffff1673ffffffffffffffffffffffffffffffffffffffff16815260200190815260200160002054600a60000181905550600360020154600a60000154111561044f576040517f08c379a000000000000000000000000000000000000000000000000000000000815260040161044690610d1e565b60405180910390fd5b600360050154341015610497576040517f08c379a000000000000000000000000000000000000000000000000000000000815260040161048e90610d8a565b60405180910390fd5b61049f6105cc565b73ffffffffffffffffffffffffffffffffffffffff166108fc6003600501549081150290604051600060405180830381858888f193505050501580156104e9573d6000803e3d6000fd5b50600360050154600981905550600260009054906101000a900473ffffffffffffffffffffffffffffffffffffffff1673ffffffffffffffffffffffffffffffffffffffff1663afd62936336040518263ffffffff1660e01b815260040161055191906109b1565b600060405180830381600087803b15801561056b57600080fd5b505af115801561057f573d6000803e3d6000fd5b5050505060018081905550565b60095481565b600260009054906101000a900473ffffffffffffffffffffffffffffffffffffffff1681565b6105c061071a565b6105ca6000610798565b565b60008060009054906101000a900473ffffffffffffffffffffffffffffffffffffffff16905090565b6000600360050154905090565b61060a61071a565b6040518060c00160405280428152602001603c876106289190610daa565b426106339190610e04565b8152602001858152602001848152602001838152602001828152506003600082015181600001556020820151816001015560408201518160020155606082015181600301556080820151816004015560a082015181600501559050505050505050565b61069e61071a565b600073ffffffffffffffffffffffffffffffffffffffff168173ffffffffffffffffffffffffffffffffffffffff16141561070e576040517f08c379a000000000000000000000000000000000000000000000000000000000815260040161070590610ecc565b60405180910390fd5b61071781610798565b50565b61072261085c565b73ffffffffffffffffffffffffffffffffffffffff166107406105cc565b73ffffffffffffffffffffffffffffffffffffffff1614610796576040517f08c379a000000000000000000000000000000000000000000000000000000000815260040161078d90610f38565b60405180910390fd5b565b60008060009054906101000a900473ffffffffffffffffffffffffffffffffffffffff169050816000806101000a81548173ffffffffffffffffffffffffffffffffffffffff021916908373ffffffffffffffffffffffffffffffffffffffff1602179055508173ffffffffffffffffffffffffffffffffffffffff168173ffffffffffffffffffffffffffffffffffffffff167f8be0079c531659141344cd1fd0a4f28419497f9722a3daafe3b4186f6b6457e060405160405180910390a35050565b600033905090565b600080fd5b600073ffffffffffffffffffffffffffffffffffffffff82169050919050565b600061089482610869565b9050919050565b6108a481610889565b81146108af57600080fd5b50565b6000813590506108c18161089b565b92915050565b6000602082840312156108dd576108dc610864565b5b60006108eb848285016108b2565b91505092915050565b6000819050919050565b610907816108f4565b82525050565b600060208201905061092260008301846108fe565b92915050565b6000819050919050565b600061094d61094861094384610869565b610928565b610869565b9050919050565b600061095f82610932565b9050919050565b600061097182610954565b9050919050565b61098181610966565b82525050565b600060208201905061099c6000830184610978565b92915050565b6109ab81610889565b82525050565b60006020820190506109c660008301846109a2565b92915050565b6109d5816108f4565b81146109e057600080fd5b50565b6000813590506109f2816109cc565b92915050565b600080600080600060a08688031215610a1457610a13610864565b5b6000610a22888289016109e3565b9550506020610a33888289016109e3565b9450506040610a44888289016109e3565b9350506060610a55888289016109e3565b9250506080610a66888289016109e3565b9150509295509295909350565b600082825260208201905092915050565b7f5265656e7472616e637947756172643a207265656e7472616e742063616c6c00600082015250565b6000610aba601f83610a73565b9150610ac582610a84565b602082019050919050565b60006020820190508181036000830152610ae981610aad565b9050919050565b7f4e487b7100000000000000000000000000000000000000000000000000000000600052601160045260246000fd5b6000610b2a826108f4565b91507fffffffffffffffffffffffffffffffffffffffffffffffffffffffffffffffff821415610b5d57610b5c610af0565b5b600182019050919050565b7f5072652053616c6520456e646564000000000000000000000000000000000000600082015250565b6000610b9e600e83610a73565b9150610ba982610b68565b602082019050919050565b60006020820190508181036000830152610bcd81610b91565b9050919050565b7f6d6178206d696e7420616d6f756e74207065722073657373696f6e206578636560008201527f6564656400000000000000000000000000000000000000000000000000000000602082015250565b6000610c30602483610a73565b9150610c3b82610bd4565b604082019050919050565b60006020820190508181036000830152610c5f81610c23565b9050919050565b7f546f74616c20537570706c79204c696d69742045786365656465640000000000600082015250565b6000610c9c601b83610a73565b9150610ca782610c66565b602082019050919050565b60006020820190508181036000830152610ccb81610c8f565b9050919050565b7f596f7572204d696e74696e67204c696d69742065786365656465640000000000600082015250565b6000610d08601b83610a73565b9150610d1382610cd2565b602082019050919050565b60006020820190508181036000830152610d3781610cfb565b9050919050565b7f506c65617365205061792046756c6c204c697374696e67204665657300000000600082015250565b6000610d74601c83610a73565b9150610d7f82610d3e565b602082019050919050565b60006020820190508181036000830152610da381610d67565b9050919050565b6000610db5826108f4565b9150610dc0836108f4565b9250817fffffffffffffffffffffffffffffffffffffffffffffffffffffffffffffffff0483118215151615610df957610df8610af0565b5b828202905092915050565b6000610e0f826108f4565b9150610e1a836108f4565b9250827fffffffffffffffffffffffffffffffffffffffffffffffffffffffffffffffff03821115610e4f57610e4e610af0565b5b828201905092915050565b7f4f776e61626c653a206e6577206f776e657220697320746865207a65726f206160008201527f6464726573730000000000000000000000000000000000000000000000000000602082015250565b6000610eb6602683610a73565b9150610ec182610e5a565b604082019050919050565b60006020820190508181036000830152610ee581610ea9565b9050919050565b7f4f776e61626c653a2063616c6c6572206973206e6f7420746865206f776e6572600082015250565b6000610f22602083610a73565b9150610f2d82610eec565b602082019050919050565b60006020820190508181036000830152610f5181610f15565b905091905056fea264697066735822122069b6edb13178869204fd08e1d4f9d9173a433c9dbd77efbdbe8c1d77bf83b51164736f6c63430008090033",
  "linkReferences": {},
  "deployedLinkReferences": {}
}