{
  "_format": "hh-sol-artifact-1",
  "contractName": "Presale",
  "sourceName": "contracts/PreSale.sol",
  "abi": [
    {
      "inputs": [
        {
          "internalType": "contract IMyToken",
          "name": "_nft",
          "type": "address"
        }
      ],
      "stateMutability": "nonpayable",
      "type": "constructor"
    },
    {
      "anonymous": false,
      "inputs": [
        {
          "indexed": true,
          "internalType": "address",
          "name": "previousOwner",
          "type": "address"
        },
        {
          "indexed": true,
          "internalType": "address",
          "name": "newOwner",
          "type": "address"
        }
      ],
      "name": "OwnershipTransferred",
      "type": "event"
    },
    {
      "inputs": [],
      "name": "endtime",
      "outputs": [
        {
          "internalType": "uint256",
          "name": "",
          "type": "uint256"
        }
      ],
      "stateMutability": "view",
      "type": "function"
    },
    {
      "inputs": [],
      "name": "listingFees",
      "outputs": [
        {
          "internalType": "uint256",
          "name": "",
          "type": "uint256"
        }
      ],
      "stateMutability": "view",
      "type": "function"
    },
    {
      "inputs": [],
      "name": "maxNftPerAddress",
      "outputs": [
        {
          "internalType": "uint256",
          "name": "",
          "type": "uint256"
        }
      ],
      "stateMutability": "view",
      "type": "function"
    },
    {
      "inputs": [],
      "name": "maxPreSaleNft",
      "outputs": [
        {
          "internalType": "uint256",
          "name": "",
          "type": "uint256"
        }
      ],
      "stateMutability": "view",
      "type": "function"
    },
    {
      "inputs": [],
      "name": "mintToken",
      "outputs": [],
      "stateMutability": "payable",
      "type": "function"
    },
    {
      "inputs": [],
      "name": "nft",
      "outputs": [
        {
          "internalType": "contract IMyToken",
          "name": "",
          "type": "address"
        }
      ],
      "stateMutability": "view",
      "type": "function"
    },
    {
      "inputs": [],
      "name": "nftCount",
      "outputs": [
        {
          "internalType": "uint256",
          "name": "",
          "type": "uint256"
        }
      ],
      "stateMutability": "view",
      "type": "function"
    },
    {
      "inputs": [
        {
          "internalType": "address",
          "name": "",
          "type": "address"
        }
      ],
      "name": "nftminted",
      "outputs": [
        {
          "internalType": "uint256",
          "name": "",
          "type": "uint256"
        }
      ],
      "stateMutability": "view",
      "type": "function"
    },
    {
      "inputs": [],
      "name": "owner",
      "outputs": [
        {
          "internalType": "address",
          "name": "",
          "type": "address"
        }
      ],
      "stateMutability": "view",
      "type": "function"
    },
    {
      "inputs": [],
      "name": "renounceOwnership",
      "outputs": [],
      "stateMutability": "nonpayable",
      "type": "function"
    },
    {
      "inputs": [
        {
          "internalType": "uint256",
          "name": "_endtime",
          "type": "uint256"
        },
        {
          "internalType": "uint256",
          "name": "_maxNftPerAddress",
          "type": "uint256"
        },
        {
          "internalType": "uint256",
          "name": "_maxPreSaleNft",
          "type": "uint256"
        },
        {
          "internalType": "uint256",
          "name": "_supply",
          "type": "uint256"
        },
        {
          "internalType": "uint256",
          "name": "_listingFees",
          "type": "uint256"
        }
      ],
      "name": "setParam",
      "outputs": [],
      "stateMutability": "nonpayable",
      "type": "function"
    },
    {
      "inputs": [],
      "name": "starttime",
      "outputs": [
        {
          "internalType": "uint256",
          "name": "",
          "type": "uint256"
        }
      ],
      "stateMutability": "view",
      "type": "function"
    },
    {
      "inputs": [],
      "name": "supply",
      "outputs": [
        {
          "internalType": "uint256",
          "name": "",
          "type": "uint256"
        }
      ],
      "stateMutability": "view",
      "type": "function"
    },
    {
      "inputs": [],
      "name": "totalNft",
      "outputs": [
        {
          "internalType": "uint256",
          "name": "",
          "type": "uint256"
        }
      ],
      "stateMutability": "view",
      "type": "function"
    },
    {
      "inputs": [],
      "name": "totalSupply",
      "outputs": [
        {
          "internalType": "uint256",
          "name": "",
          "type": "uint256"
        }
      ],
      "stateMutability": "view",
      "type": "function"
    },
    {
      "inputs": [
        {
          "internalType": "address",
          "name": "newOwner",
          "type": "address"
        }
      ],
      "name": "transferOwnership",
      "outputs": [],
      "stateMutability": "nonpayable",
      "type": "function"
    }
  ],
  "bytecode": "0x60806040523480156200001157600080fd5b506040516200130a3803806200130a8339818101604052810190620000379190620001f0565b620000576200004b620000a660201b60201c565b620000ae60201b60201c565b6001808190555080600260006101000a81548173ffffffffffffffffffffffffffffffffffffffff021916908373ffffffffffffffffffffffffffffffffffffffff1602179055505062000222565b600033905090565b60008060009054906101000a900473ffffffffffffffffffffffffffffffffffffffff169050816000806101000a81548173ffffffffffffffffffffffffffffffffffffffff021916908373ffffffffffffffffffffffffffffffffffffffff1602179055508173ffffffffffffffffffffffffffffffffffffffff168173ffffffffffffffffffffffffffffffffffffffff167f8be0079c531659141344cd1fd0a4f28419497f9722a3daafe3b4186f6b6457e060405160405180910390a35050565b600080fd5b600073ffffffffffffffffffffffffffffffffffffffff82169050919050565b6000620001a48262000177565b9050919050565b6000620001b88262000197565b9050919050565b620001ca81620001ab565b8114620001d657600080fd5b50565b600081519050620001ea81620001bf565b92915050565b60006020828403121562000209576200020862000172565b5b60006200021984828501620001d9565b91505092915050565b6110d880620002326000396000f3fe6080604052600436106100f35760003560e01c8063490c06c11161008a5780638da58897116100595780638da58897146102d95780638da5cb5b14610304578063e5347d0f1461032f578063f2fde38b14610358576100f3565b8063490c06c1146102415780635d7e26551461026c578063715018a6146102975780637ba1b973146102ae576100f3565b80632004ffd9116100c65780632004ffd9146101b65780632ca126f8146101c057806347a3320a146101eb57806347ccca0214610216576100f3565b8063047fc9aa146100f85780630af2c6ca1461012357806318160ddd1461014e5780631cb6095014610179575b600080fd5b34801561010457600080fd5b5061010d610381565b60405161011a91906109c7565b60405180910390f35b34801561012f57600080fd5b50610138610387565b60405161014591906109c7565b60405180910390f35b34801561015a57600080fd5b5061016361038d565b60405161017091906109c7565b60405180910390f35b34801561018557600080fd5b506101a0600480360381019061019b9190610a45565b610393565b6040516101ad91906109c7565b60405180910390f35b6101be6103ab565b005b3480156101cc57600080fd5b506101d5610709565b6040516101e291906109c7565b60405180910390f35b3480156101f757600080fd5b5061020061070f565b60405161020d91906109c7565b60405180910390f35b34801561022257600080fd5b5061022b610715565b6040516102389190610ad1565b60405180910390f35b34801561024d57600080fd5b5061025661073b565b60405161026391906109c7565b60405180910390f35b34801561027857600080fd5b50610281610741565b60405161028e91906109c7565b60405180910390f35b3480156102a357600080fd5b506102ac610747565b005b3480156102ba57600080fd5b506102c361075b565b6040516102d091906109c7565b60405180910390f35b3480156102e557600080fd5b506102ee610761565b6040516102fb91906109c7565b60405180910390f35b34801561031057600080fd5b50610319610767565b6040516103269190610afb565b60405180910390f35b34801561033b57600080fd5b5061035660048036038101906103519190610b42565b610790565b005b34801561036457600080fd5b5061037f600480360381019061037a9190610a45565b6107e0565b005b60075481565b60095481565b600b5481565b600c6020528060005260406000206000915090505481565b600260015414156103f1576040517f08c379a00000000000000000000000000000000000000000000000000000000081526004016103e890610c1a565b60405180910390fd5b6002600181905550600a600081548092919061040c90610c69565b9190505550600b600081548092919061042490610c69565b919050555042600454101561046e576040517f08c379a000000000000000000000000000000000000000000000000000000000815260040161046590610cfe565b60405180910390fd5b600654600a5411156104b5576040517f08c379a00000000000000000000000000000000000000000000000000000000081526004016104ac90610d90565b60405180910390fd5b600b5460075410156104fc576040517f08c379a00000000000000000000000000000000000000000000000000000000081526004016104f390610dfc565b60405180910390fd5b600c60003373ffffffffffffffffffffffffffffffffffffffff1673ffffffffffffffffffffffffffffffffffffffff168152602001908152602001600020600081548092919061054c90610c69565b9190505550600c60003373ffffffffffffffffffffffffffffffffffffffff1673ffffffffffffffffffffffffffffffffffffffff1681526020019081526020016000205460098190555060055460095411156105de576040517f08c379a00000000000000000000000000000000000000000000000000000000081526004016105d590610e68565b60405180910390fd5b600854341015610623576040517f08c379a000000000000000000000000000000000000000000000000000000000815260040161061a90610ed4565b60405180910390fd5b61062b610767565b73ffffffffffffffffffffffffffffffffffffffff166108fc6008549081150290604051600060405180830381858888f19350505050158015610672573d6000803e3d6000fd5b50600260009054906101000a900473ffffffffffffffffffffffffffffffffffffffff1673ffffffffffffffffffffffffffffffffffffffff1663afd62936336040518263ffffffff1660e01b81526004016106ce9190610afb565b600060405180830381600087803b1580156106e857600080fd5b505af11580156106fc573d6000803e3d6000fd5b5050505060018081905550565b60045481565b60055481565b600260009054906101000a900473ffffffffffffffffffffffffffffffffffffffff1681565b600a5481565b60085481565b61074f610864565b61075960006108e2565b565b60065481565b60035481565b60008060009054906101000a900473ffffffffffffffffffffffffffffffffffffffff16905090565b610798610864565b42600381905550603c856107ac9190610ef4565b426107b79190610f4e565b600481905550836005819055508260068190555081600781905550806008819055505050505050565b6107e8610864565b600073ffffffffffffffffffffffffffffffffffffffff168173ffffffffffffffffffffffffffffffffffffffff161415610858576040517f08c379a000000000000000000000000000000000000000000000000000000000815260040161084f90611016565b60405180910390fd5b610861816108e2565b50565b61086c6109a6565b73ffffffffffffffffffffffffffffffffffffffff1661088a610767565b73ffffffffffffffffffffffffffffffffffffffff16146108e0576040517f08c379a00000000000000000000000000000000000000000000000000000000081526004016108d790611082565b60405180910390fd5b565b60008060009054906101000a900473ffffffffffffffffffffffffffffffffffffffff169050816000806101000a81548173ffffffffffffffffffffffffffffffffffffffff021916908373ffffffffffffffffffffffffffffffffffffffff1602179055508173ffffffffffffffffffffffffffffffffffffffff168173ffffffffffffffffffffffffffffffffffffffff167f8be0079c531659141344cd1fd0a4f28419497f9722a3daafe3b4186f6b6457e060405160405180910390a35050565b600033905090565b6000819050919050565b6109c1816109ae565b82525050565b60006020820190506109dc60008301846109b8565b92915050565b600080fd5b600073ffffffffffffffffffffffffffffffffffffffff82169050919050565b6000610a12826109e7565b9050919050565b610a2281610a07565b8114610a2d57600080fd5b50565b600081359050610a3f81610a19565b92915050565b600060208284031215610a5b57610a5a6109e2565b5b6000610a6984828501610a30565b91505092915050565b6000819050919050565b6000610a97610a92610a8d846109e7565b610a72565b6109e7565b9050919050565b6000610aa982610a7c565b9050919050565b6000610abb82610a9e565b9050919050565b610acb81610ab0565b82525050565b6000602082019050610ae66000830184610ac2565b92915050565b610af581610a07565b82525050565b6000602082019050610b106000830184610aec565b92915050565b610b1f816109ae565b8114610b2a57600080fd5b50565b600081359050610b3c81610b16565b92915050565b600080600080600060a08688031215610b5e57610b5d6109e2565b5b6000610b6c88828901610b2d565b9550506020610b7d88828901610b2d565b9450506040610b8e88828901610b2d565b9350506060610b9f88828901610b2d565b9250506080610bb088828901610b2d565b9150509295509295909350565b600082825260208201905092915050565b7f5265656e7472616e637947756172643a207265656e7472616e742063616c6c00600082015250565b6000610c04601f83610bbd565b9150610c0f82610bce565b602082019050919050565b60006020820190508181036000830152610c3381610bf7565b9050919050565b7f4e487b7100000000000000000000000000000000000000000000000000000000600052601160045260246000fd5b6000610c74826109ae565b91507fffffffffffffffffffffffffffffffffffffffffffffffffffffffffffffffff821415610ca757610ca6610c3a565b5b600182019050919050565b7f5072652053616c6520456e646564000000000000000000000000000000000000600082015250565b6000610ce8600e83610bbd565b9150610cf382610cb2565b602082019050919050565b60006020820190508181036000830152610d1781610cdb565b9050919050565b7f6d6178206d696e7420616d6f756e74207065722073657373696f6e206578636560008201527f6564656400000000000000000000000000000000000000000000000000000000602082015250565b6000610d7a602483610bbd565b9150610d8582610d1e565b604082019050919050565b60006020820190508181036000830152610da981610d6d565b9050919050565b7f546f74616c20537570706c79204c696d69742045786365656465640000000000600082015250565b6000610de6601b83610bbd565b9150610df182610db0565b602082019050919050565b60006020820190508181036000830152610e1581610dd9565b9050919050565b7f596f7572204d696e74696e67204c696d69742065786365656465640000000000600082015250565b6000610e52601b83610bbd565b9150610e5d82610e1c565b602082019050919050565b60006020820190508181036000830152610e8181610e45565b9050919050565b7f506c65617365205061792046756c6c204c697374696e67204665657300000000600082015250565b6000610ebe601c83610bbd565b9150610ec982610e88565b602082019050919050565b60006020820190508181036000830152610eed81610eb1565b9050919050565b6000610eff826109ae565b9150610f0a836109ae565b9250817fffffffffffffffffffffffffffffffffffffffffffffffffffffffffffffffff0483118215151615610f4357610f42610c3a565b5b828202905092915050565b6000610f59826109ae565b9150610f64836109ae565b9250827fffffffffffffffffffffffffffffffffffffffffffffffffffffffffffffffff03821115610f9957610f98610c3a565b5b828201905092915050565b7f4f776e61626c653a206e6577206f776e657220697320746865207a65726f206160008201527f6464726573730000000000000000000000000000000000000000000000000000602082015250565b6000611000602683610bbd565b915061100b82610fa4565b604082019050919050565b6000602082019050818103600083015261102f81610ff3565b9050919050565b7f4f776e61626c653a2063616c6c6572206973206e6f7420746865206f776e6572600082015250565b600061106c602083610bbd565b915061107782611036565b602082019050919050565b6000602082019050818103600083015261109b8161105f565b905091905056fea26469706673582212203eca61406e2ddac1abc393ffde89081153be0ca019563e90417e202abf64713d64736f6c63430008090033",
  "linkReferences": {},
  "deployedLinkReferences": {}
}